:100000000C94BA020C94E2020C94E2020C94E20208
:100010000C94E2020C94E2020C94E2020C94E202D0
:100020000C94E2020C94E2020C94E2020C94E202C0
:100030000C94E2020C94C3080C94E2020C94E202C9
:100040000C9479080C94E2020C9447080C94210853
:100050000C94E2020C94E2020C94E2020C94E20290
:100060000C94E2020C94E20200000000250028003B
:100070002B000000000023002600290000000008DB
:10008000000201000003040700000000000000005F
:100090001E6C0A0E206000010308070A0801030312
:1000A0000507010401040603060607060606060600
:1000B0000101060606060D090708080707090701DA
:1000C000050807090709070908070707090D0809AF
:1000D00008020402050802060605060604060601D3
:1000E00002060109060606060405040607090607B6
:1000F000060301030707FE141E001E000000909077
:10010000F89690F89690001C00001C00000018243F
:1001100022FF4242840810103C1008041C22221CBA
:10012000C0308C4240800000100C00000C10100CFD
:10013000805C2262920C80000C101010100C0810D1
:100140001E00F00C021C6080020CF080601C041485
:100150000E14040000000000404040F84040400001
:1001600000000C0000000070808080800000000013
:10017000001000C0380618040000FC02020202FC55
:100180000C101010100C0804FE00001C0C0202825F
:10019000423C1018141010100C02222222DC0C1009
:1001A0001010100C8040300804FE00040404040405
:1001B0001C043816121212E20C1010101804F84425
:1001C000222222C40C101010100C020202E21A06A5
:1001D00000001C000000DC22222222DC0C10101087
:1001E000100C3C42424222FC081010100804081077
:1001F000087040A0A01010080000000404089090AF
:1002000090909090000000000000081010A0A04006
:100210000804040000000C028242221C00001400AA
:100220000000E01804C422121212A2720408F00C9A
:1002300030404C909090889C90504C200080E09CE6
:10024000829CE08000180400000000000418FE22D8
:1002500022222222DC1C10101010100CF8040202C2
:10026000020204080408101010100804FE02020222
:10027000020204F81C10101010100804FE222222A2
:100280002222221C101010101010FE2222222222E4
:10029000021C000000000000F80402020242424476
:1002A000C8040810101010100804FE202020202080
:1002B000FE1C00000000001CFE1C00000000FE0CE4
:1002C0001010100CFE804020508804021C0000001A
:1002D00000040810FE0000000000001C10101010A8
:1002E0001010FE0C30C000C0300CFE1C00000418C2
:1002F0000400001CFE0418608000FE1C00000004C6
:10030000081CF804020202020204F804081010108B
:1003100010100804FE42424242423C1C0000000011
:100320000000F804020202020204F804081010108F
:1003300014081C10FE424242C242423C1C00000013
:10034000000408101C22222242428C0C10101010B3
:10035000100C020202FE0202020000001C0000005B
:10036000FE0000000000FE0408101010080406182B
:10037000608000806018060000000418040000007F
:100380000638C000C03C023CC000C0380600000473
:1003900018040000000418040000020C9060609033
:1003A0000C02100C000000040C1002041820C020E5
:1003B000180402000000001C00000000000282423D
:1003C000221A06021018141010101010FE02FC80E1
:1003D0000638C0000000041802FE80FC201C021C2D
:1003E00020000000000000000000000000008080ED
:1003F000808080808080020400001088484848F097
:100400000C101010081CFE10080808F01C08101032
:10041000100CF0080808100C10101008F00808085C
:1004200010FE0C101010081CF048484848700C10C2
:100430001010100808FC0A0A001C0000F008080848
:1004400010F84C909090887CFE10080808F01C0072
:100450000000001CFA1C00FA807CFE8040A01008FE
:100460001C0000000C10FE1CF8100808F010080812
:10047000F01C0000001C0000001CF810080808F028
:100480001C000000001CF008080808F00C101010F8
:10049000100CF810080808F0FC081010100CF008F8
:1004A000080810F80C10101008FCF81008081C00C0
:1004B00000003048484890081010100C08FE08084A
:1004C000001C1010F800000000F80C101010081CA0
:1004D000186080008060180000041804000018E014
:1004E00000E018E000E018000418040004180400FC
:1004F0000830C0C03008100C00000C1018608000DC
:1005000080601800808C700C00000808886818084B
:10051000101814101010807C02007C80FEFC027CFD
:1005200080807C00402020604040200000000000CF
:100530000000FC0404040404FC1C10101010101C27
:1005400000000000240027002A00010204081020F7
:100550004080010204081020010204081020040455
:10056000040404040404020202020202030303035B
:1005700003031B0911241FBECFEFD8E0DEBFCDBFA0
:1005800011E0A0E0B1E0E2ECFFE102C005900D92C5
:10059000A034B107D9F723E0A0E4B1E001C01D9277
:1005A000AA31B207E1F712E0CAEBD2E004C021970A
:1005B000FE010E94AD0EC93BD107C9F70E942E0A69
:1005C0000C94DF0F0C940000CF93DF9330910C0359
:1005D00050E2359FF00111248E179F0708F04BC0A1
:1005E000E0910D0350E1E59FF00111246E177F07A4
:1005F00008F041C0DC01AF71BB27FB0154E0F69568
:10060000E7955A95E1F7F5E096958795FA95E1F724
:100610003E9F800D112430E2839FC0011124A80F5A
:10062000B91FFD01E770FF27E65FFE4F9081C09183
:100630000E0354E0C59FE00111246F707727C69F19
:10064000F001C79FF00DD69FF00D1124C3E0B695C1
:10065000A795CA95E1F7AE0FBF1FE091FF01F0919A
:100660000002EA0FFB1F8081413041F0213041F44C
:10067000909598239083DF91CF9108952223C1F321
:10068000982BF8CF2F923F924F925F926F927F926A
:100690008F929F92AF92BF92CF92DF92EF92FF9292
:1006A0000F931F93CF93DF93CDB7DEB72D970FB680
:1006B000F894DEBF0FBECDBF2C014B0180910C031F
:1006C00020E2829FC0011124841595050CF44FC1CE
:1006D00080910D0330E1839FC00111248617970795
:1006E0000CF445C120900A0330900B03F1013396BE
:1006F000C4903196310155E0650E711C403209F00D
:1007000062C08491F30164908F3608F055C0482F81
:10071000460D5527551F4F3651050CF44DC0F101BC
:100720009491911142C03196E491E1113EC0F2E002
:100730002F0E311CF1012490312CD12C34016C0C82
:100740007D1C9201220D331D3A8329837601EE0C24
:10075000FF1C442755274C195D095D834C83F19498
:10076000E194F10889819A81841595050CF402C100
:1007700021E041E0B401C2010E94E402AC80BD80EE
:100780008401620160167106D1F0A114B10421F454
:100790009FEFC91AD90A57010F5F1F4F21E041E0AF
:1007A000B801C6010E94E402EDCFEEE6E81BF0E0DE
:1007B0003696E20DF31DBFCF312C212CBECFEFEFCB
:1007C0004E1A5E0ACFCF8491F3016490481708F463
:1007D000EBC0712C9301280F311D421713060CF04A
:1007E000E3C0D12C9601295F3F4F53E03595279503
:1007F0005A95E1F7481BF1018491811104C03196AB
:10080000E491EE2371F0F101369650E090E080E043
:10081000451709F493C06491860F911D5F5F31966F
:10082000F7CFF1013296B490429FC001439F900DE3
:100830001124B89E3001B99E700C1124F6E06F0EA1
:10084000711C2B2C312C8827992782199309481663
:1008500059060CF48FC0882799278C199D09881692
:1008600099060CF487C02B838201C90101979987EF
:100870008887F6013897FB87EA87802F84198B15C4
:1008800008F078C0AB80AA94FDEFFA1508F469C0AF
:10089000E0910A03F0910B03C301BA9C800D911DF6
:1008A0001124E80FF91FE4918A2D90E09C0143E0A8
:1008B000220F331F4A95E1F73A83298348855985EA
:1008C0008417950729F45B81EA84FB84523010F485
:1008D000E980FA801D861C86C4018E0D9F1D9D83B4
:1008E0008C832E2F30E03F832E832C858C859D8535
:1008F0008E0D9F1D49815A8184179507BCF0C8163B
:10090000D906A4F06C817D818C859D85680F791F47
:100910008E819F8102C0959587952A95E2F721E007
:1009200080FF20E040E0C8010E94E402EC85FD85E4
:100930003196FD87EC873897C1F6A5CF289FB00187
:10094000299F700D389F700D112456E0650E711CA3
:10095000660E771EE42FF0E03696E20DF31DB4909C
:1009600070CF0F5F1F4FFFEF6F1A7F0A86CF2224D1
:100970002A94322CC1012D960FB6F894DEBF0FBE1B
:10098000CDBFDF91CF911F910F91FF90EF90DF903E
:10099000CF90BF90AF909F908F907F906F905F901F
:1009A0004F903F902F900895312C212CE3CFAF92A0
:1009B000BF92CF92DF92EF92FF920F931F93CF934C
:1009C000DF936C017B018B01040F151FEB015E01AE
:1009D000AE18BF08C017D10759F06991D601ED9143
:1009E000FC910190F081E02DC6010995892B79F7E2
:1009F000C501DF91CF911F910F91FF90EF90DF9094
:100A0000CF90BF90AF900895FC01538D448D252F5A
:100A100030E0842F90E0821B930B541710F0CF9698
:100A2000089501970895FC01918D828D981761F0CA
:100A3000A28DAE0FBF2FB11D5D968C91928D9F5FE1
:100A40009F73928F90E008958FEF9FEF0895FC01C0
:100A5000918D828D981731F0828DE80FF11D858D73
:100A600090E008958FEF9FEF0895FC01918D228D06
:100A7000892F90E0805C9F4F821B91098F7399278B
:100A8000089585E591E00E94350521E0892B09F460
:100A900020E0822F089580E090E0892B29F00E94C9
:100AA000410581110C9400000895FC01A48DA80F4C
:100AB000B92FB11DA35ABF4F2C91848D90E00196A0
:100AC0008F739927848FA689B7892C93A089B189C0
:100AD0008C91837080648C93938D848D981306C061
:100AE0000288F389E02D80818F7D80830895EF92C5
:100AF000FF920F931F93CF93DF93EC0181E0888FD8
:100B00009B8D8C8D98131AC0E889F989808185FFA7
:100B100015C09FB7F894EE89FF896083E889F98949
:100B200080818370806480839FBF81E090E0DF914B
:100B3000CF911F910F91FF90EF900895F62E0B8D9E
:100B400010E00F5F1F4F0F731127E02E8C8D8E1159
:100B50000CC00FB607FCFACFE889F989808185FFC0
:100B6000F5CFCE010E945505F1CFEB8DEC0FFD2F97
:100B7000F11DE35AFF4FF0829FB7F8940B8FEA897B
:100B8000FB8980818062CFCFCF93DF93EC01888D8A
:100B90008823B9F0AA89BB89E889F9898C9185FDF8
:100BA00003C0808186FD0DC00FB607FCF7CF8C9186
:100BB00085FFF2CF808185FFEDCFCE010E945505E4
:100BC000E9CFDF91CF910895833081F028F481300F
:100BD00099F08230A9F008958730A9F08830C9F0E3
:100BE0008430B1F4809180008F7D03C080918000BB
:100BF0008F7780938000089584B58F7784BD0895A2
:100C000084B58F7DFBCF8091B0008F778093B0004B
:100C100008958091B0008F7DF9CFCF93DF93282F77
:100C200030E0F901E458FF4F8491F901E65BFA4F97
:100C3000D491F901E25AFA4FC491CC23A1F0811169
:100C40000E94E405EC2FF0E0EE0FFF1FEE58FF4F7F
:100C5000A591B491EC91ED2381E090E009F480E05E
:100C6000DF91CF91089580E090E0FACF1F93CF936A
:100C7000DF93282F30E0F901E458FF4F8491F90108
:100C8000E65BFA4FD491F901E25AFA4FC491CC23B2
:100C9000A9F0162F81110E94E405EC2FF0E0EE0F71
:100CA000FF1FE859FF4FA591B4918FB7F894EC91CD
:100CB000111108C0D095DE23DC938FBFDF91CF9157
:100CC0001F910895DE2BF8CF4F925F926F927F9223
:100CD0008F929F92AF92BF92CF92DF92EF92FF924C
:100CE0000F931F93CF93DF9300D01F92CDB7DEB742
:100CF00050E2A52EC12CD12C7601412C512C320171
:100D000043948091F5010E940D06892BD1F743E0B1
:100D1000B42EBA948FEFB81681F107E010E0882462
:100D20008394912C8C0E9D1E8B0C911C8091F6014E
:100D30000F3F100771F361E00E9436068091F501C4
:100D40000E940D06B301A201002E04C0440F551FDE
:100D5000661F771F0A94D2F7F4012081892B51F086
:100D6000422B408360E08091F6010E9436060150DC
:100D70001109DCCF40954223F4CF61E08091F60168
:100D80000E94360660E08091F6010E9436062B81B3
:100D9000205889819A81B0E0A22FC80ED91EEA1E80
:100DA000FB1EAA94A110ADCFC701B60125E0959511
:100DB0008795779567952A95D1F70F900F900F90AB
:100DC000DF91CF911F910F91FF90EF90DF90CF9027
:100DD000BF90AF909F908F907F906F905F904F905B
:100DE00008953FB7F8948091450190914601A091F4
:100DF0004701B091480126B5A89B05C02F3F19F0C7
:100E00000196A11DB11D3FBFBA2FA92F982F88278A
:100E1000BC01CD01620F711D811D911D42E0660F65
:100E2000771F881F991F4A95D1F70895089508954F
:100E30008EBD00000DB407FEFDCF8EB508950F9353
:100E40001F93CF93DF938AE00E940D06019709F06C
:100E500092C000910E0384E0089F800111248091CC
:100E60001503809FE001819FD00D11240C0F1D1FE1
:100E7000C017D107C1F1E091FF01F091000280910C
:100E8000130390911403E80FF91FEC0FFD1F8081ED
:100E90000E941807E091FF01F09100028091110378
:100EA00090911203E80FF91FEC0FFD1F80810E9443
:100EB0001807E091FF01F091000280910F039091DB
:100EC0001003E80FF91FEC0FFD1F80810E94180727
:100ED000E091FF01F0910002EC0FFD1F80810E9464
:100EE00018072196C5CF60E089E00E94360661E0D0
:100EF00088E00E94360660E088E00E943606809115
:100F000015038130C9F060F0823001F1833041F186
:100F100061E089E0DF91CF911F910F910C9436062B
:100F200060E087E00E94360660E086E00E943606B8
:100F300081E080931503ECCF60E087E00E943606E5
:100F400061E086E00E94360682E0F3CF61E087E050
:100F50000E94360660E086E00E94360683E0E9CF14
:100F600061E087E00E94360661E086E00E94360676
:100F700010921503CDCFDF91CF911F910F9108955E
:100F800040910E0380E4489FA00111246FEF70E0B0
:100F90008091FF01909100020C94D80FFC01019008
:100FA0000020E9F73197AF01481B590BBC0185E5DB
:100FB00091E00C94D7048F929F92AF92BF920F93BF
:100FC0001F93CF93DF93CDB7DEB7A1970FB6F894F9
:100FD000DEBF0FBECDBF19A2423008F44AE08E0139
:100FE0000F5D1F4F842E912CB12CA12CA5019401D3
:100FF0000E94770EE62FB901CA01EA30F4F4E05DF1
:10100000D801EE938D01232B242B252B79F790E02B
:1010100080E0109719F0CD010E94CE07A1960FB67F
:10102000F894DEBF0FBECDBFDF91CF911F910F911E
:10103000BF90AF909F908F900895E95CE1CF0C94A2
:101040004F0F1F920F920FB60F9211242F933F93C1
:101050004F935F936F937F938F939F93AF93BF93C0
:10106000EF93FF9385E591E00E945505FF91EF9185
:10107000BF91AF919F918F917F916F915F914F91B0
:101080003F912F910F900FBE0F901F9018951F92B8
:101090000F920FB60F9211242F938F939F93EF937C
:1010A000FF93E0916501F09166018081E0916B0111
:1010B000F0916C0182FD1BC0908180916E018F5F69
:1010C0008F7320916F01821741F0E0916E01F0E083
:1010D000EB5AFE4F958F80936E01FF91EF919F9198
:1010E0008F912F910F900FBE0F901F9018958081B8
:1010F000F4CF1F920F920FB60F9211242F933F93AC
:101100008F939F93AF93BF93809141019091420140
:10111000A0914301B09144013091400123E0230F9D
:101120002D3758F50196A11DB11D209340018093E4
:10113000410190934201A0934301B09344018091F7
:10114000450190914601A0914701B0914801019657
:10115000A11DB11D8093450190934601A0934701C5
:10116000B0934801BF91AF919F918F913F912F9183
:101170000F900FBE0F901F90189526E8230F029630
:10118000A11DB11DD2CF1F920F920FB60F92112445
:101190002F933F934F935F936F937F938F939F937F
:1011A000AF93BF93EF93FF93E0910001F0910101A2
:1011B0000995FF91EF91BF91AF919F918F917F9191
:1011C0006F915F914F913F912F910F900FBE0F90B4
:1011D0001F901895CF93DF9390E0FC01E65BFA4FE8
:1011E0002491825A9A4FFC0184918823D1F090E097
:1011F000880F991FFC01E05CFA4FA591B491FC01A6
:10120000E859FF4FC591D49161110EC09FB7F89472
:101210008C91E22FE0958E238C932881E223E88342
:101220009FBFDF91CF9108958FB7F894EC91E22B97
:10123000EC938FBFF6CFCF931092580110925701C5
:1012400088EE93E0A0E0B0E08093590190935A01BA
:10125000A0935B01B0935C0186E191E0909356010D
:101260008093550185EC90E0909362018093610139
:1012700084EC90E0909364018093630180EC90E0B3
:10128000909366018093650181EC90E090936801F2
:101290008093670182EC90E090936A0180936901EA
:1012A00086EC90E090936C0180936B0110926E013C
:1012B00010926F01109270011092710181E0809381
:1012C0000C0380930D0380930E0380E190E09093D4
:1012D000100380930F0380E290E0909312038093B9
:1012E000110380E390E0909314038093130380E450
:1012F00090E00E94B30E909300028093FF01CFB75D
:10130000F8948091F201811127C0E8E6F5E084911C
:10131000E4E5F5E09491E82FF0E0EE0FFF1FE05CCC
:10132000FA4FA591B491EC91E92321F461E08AE0B0
:101330000E94360661E08AE00E94EA088CB580616E
:101340008CBD8CB580648CBD61E08DE00E94EA08A4
:1013500061E08BE00E94EA088091F2018F5F809348
:10136000F201CFBF8CB58F7D8CBD8CB5837F8CBDDA
:101370008CB58C7F8CBD8DB58E7F8DBD60E086E099
:101380000E94360660E087E00E94360660E08DE04D
:101390000E94360660E088E00E94360661E08BE03D
:1013A0000E94360660E089E00E94360661E086E031
:1013B0000E94EA0861E087E00E94EA0861E08DE0AF
:1013C0000E94EA0861E088E00E94EA0861E08BE0A0
:1013D0000E94EA0861E089E00E94EA080E94C007D2
:1013E0001092150388E291E09093F4018093F30149
:1013F00080E18093F50181E18093F60161E00E9434
:10140000EA0860E08091F5010E94EA0861E08091BD
:10141000F6010E9436068BE891E00197F1F760E053
:101420008091F6010E9436060E9464060E946406BE
:101430006093F7017093F8018093F9019093FA019A
:1014400080E090E8A9E3B4E48093FB019093FC0171
:10145000A093FD01B093FE01CF910895789484B5D7
:10146000826084BD84B5816084BD85B5826085BDA0
:1014700085B5816085BD80916E00816080936E002E
:101480001092810080918100826080938100809120
:1014900081008160809381008091800081608093D1
:1014A00080008091B10084608093B1008091B00091
:1014B00081608093B00080917A00846080937A008C
:1014C00080917A00826080937A0080917A008160B6
:1014D00080937A0080917A00806880937A001092DD
:1014E000C100E0916501F091660182E08083E091A6
:1014F0006101F09162011082E0916301F091640159
:101500008FEC808310926D01E0916901F0916A0186
:1015100086E08083E0916701F091680180818061BD
:101520008083E0916701F091680180818860808309
:10153000E0916701F0916801808180688083E0918B
:101540006701F091680180818F7D808380E18093C5
:1015500081001092800080E49CE990938700809342
:10156000860081E1809381008FE197E090930101F3
:101570008093000181E080936F000E94C00780E9A2
:1015800090E090930B0380930A039AE0292E312C6C
:10159000C1E0D0E000E010E00E946406C090F701D6
:1015A000D090F801E090F901F090FA016C197D09F2
:1015B0008E099F090E943C0D2091FB013091FC0196
:1015C0004091FD015091FE010E94920C2EE73CEDEE
:1015D00041E85FE30E94920C6B017C010E94040DC4
:1015E000709303016093020120E030E040E251E497
:1015F000C701B6010E94920C6B017C014B015C019A
:10160000AC019B010E945E0E882309F496C08CE217
:1016100091E00E94CE0788E391E00E94CE078CE320
:1016200091E00E94CE07809102019091030168EE43
:1016300073E00E94630E6B01709354016093530139
:1016400064E670E00E94630E7B0170935201609328
:101650005101B1010E94630EA62EB82E60934F0176
:101660007093500180934D0190934E010E94C007EA
:10167000D0934C01C0934B01D0934A01C0934901D0
:10168000C114D10409F0D1C040E261E070E081E012
:1016900090E00E944203E114F10409F0CEC040E260
:1016A00061E070E088E090E00E94420340E34A0D70
:1016B00061E070E080E190E00E94420340E34B0D66
:1016C00061E070E089E190E00E9442034CE261E059
:1016D00070E087E190E00E9442030E94F1064B0116
:1016E0005C0188ECC82ED12CE12CF12C0E94F10673
:1016F000681979098A099B09683E7340810591053B
:10170000A8F321E0C21AD108E108F10888EE880E9A
:1017100083E0981EA11CB11CC114D104E104F104A2
:1017200029F70115110509F437CF0E9441058823D7
:1017300009F432CF0E9400002FCF26013701E89430
:1017400077F82FEF3FEF4FE75FE7C301B2010E9449
:101750005E0E81110DC02FEF3FEF4FE75FE7C30132
:10176000B2010E948D0C18161CF480E391E051CF59
:101770002FEF3FEF4FE75FE4C701B6010E94EC0D8A
:1017800018161CF484E391E044CF2FEF3FEF4FE7AE
:101790005FECC701B6010E948D0C87FDF3CF20E0FE
:1017A00030E0A901C701B6010E948D0C87FF0BC074
:1017B0006DE285E591E00E94770546015701B7FA91
:1017C000B094B7F8B0942DEC3CEC4CE45DE3C5016B
:1017D000B4010E94210C4B015C010E940B0D6B01B6
:1017E0007C010E943A0D9B01AC01C501B4010E942D
:1017F000200C4B015C014AE0C701B6010E94DB07E7
:101800006EE285E591E00E94770520E030E040E25D
:1018100051E4C501B4010E94F10D0E940B0D90E04E
:1018200080E04AE00E94DB07F6CE40E34C0D61E029
:1018300070E081E090E00E94420340E34E0D30CF23
:101840005058BB27AA270E94380C0C94B20D0E9456
:10185000A40D38F00E94AB0D20F039F49F3F19F42D
:1018600026F40C94A10D0EF4E095E7FB0C949B0D6F
:10187000E92F0E94C30D58F3BA1762077307840754
:10188000950720F079F4A6F50C94E50D0EF4E0959B
:101890000B2EBA2FA02D0B01B90190010C01CA012A
:1018A000A0011124FF27591B99F0593F50F4503ED5
:1018B00068F11A16F040A22F232F342F4427585FC7
:1018C000F3CF469537952795A795F0405395C9F7DF
:1018D0007EF41F16BA0B620B730B840BBAF0915097
:1018E000A1F0FF0FBB1F661F771F881FC2F70EC036
:1018F000BA0F621F731F841F48F487957795679509
:10190000B795F7959E3F08F0B0CF9395880F08F0F4
:101910009927EE0F9795879508950E94770D08F403
:1019200081E008950E94A60C0C94B20D0E94AB0DAC
:1019300058F00E94A40D40F029F45F3F29F00C9468
:101940009B0D51110C94E60D0C94A10D0E94C30D3A
:1019500068F39923B1F3552391F3951B550BBB27DE
:10196000AA2762177307840738F09F5F5F4F220F23
:10197000331F441FAA1FA9F335D00E2E3AF0E0E81A
:1019800032D091505040E695001CCAF72BD0FE2F64
:1019900029D0660F771F881FBB1F261737074807F8
:1019A000AB07B0E809F0BB0B802DBF01FF279358B0
:1019B0005F4F3AF09E3F510578F00C949B0D0C94CC
:1019C000E60D5F3FE4F3983ED4F3869577956795EF
:1019D000B795F7959F5FC9F7880F911D96958795E5
:1019E00097F90895E1E0660F771F881FBB1F621704
:1019F00073078407BA0720F0621B730B840BBA0BC2
:101A0000EE1F88F7E09508950E940B0D6894B111C0
:101A10000C94E60D08950E94CB0D88F09F5798F026
:101A2000B92F9927B751B0F0E1F0660F771F881FE3
:101A3000991F1AF0BA95C9F714C0B13091F00E94FD
:101A4000E50DB1E008950C94E50D672F782F8827F8
:101A5000B85F39F0B93FCCF3869577956795B39524
:101A6000D9F73EF490958095709561957F4F8F4F93
:101A70009F4F0895E89409C097FB3EF49095809598
:101A8000709561957F4F8F4F9F4F9923A9F0F92F44
:101A900096E9BB279395F695879577956795B795C2
:101AA000F111F8CFFAF4BB0F11F460FF1BC06F5FA8
:101AB0007F4F8F4F9F4F16C0882311F096E911C0BA
:101AC000772321F09EE8872F762F05C0662371F0DB
:101AD00096E8862F70E060E02AF09A95660F771FEF
:101AE000881FDAF7880F9695879597F90895990FCB
:101AF0000008550FAA0BE0E8FEEF16161706E807D8
:101B0000F907C0F012161306E407F50798F0621BF8
:101B1000730B840B950B39F40A2661F0232B242BCD
:101B2000252B21F408950A2609F4A140A6958FEFEC
:101B3000811D811D089597F99F6780E870E060E03E
:101B400008959FEF80EC089500240A941616170656
:101B500018060906089500240A941216130614069E
:101B600005060895092E0394000C11F4882352F001
:101B7000BB0F40F4BF2B11F460FF04C06F5F7F4FB9
:101B80008F4F9F4F089557FD9058440F551F59F0A0
:101B90005F3F71F04795880F97FB991F61F09F3F5A
:101BA00079F087950895121613061406551FF2CF83
:101BB0004695F1DF08C0161617061806991FF1CFD3
:101BC00086957105610508940895E894BB276627FA
:101BD0007727CB0197F908950E94770D08F48FEFCE
:101BE00008950E94040E0C94B20D0E94A40D38F0CA
:101BF0000E94AB0D20F0952311F00C949B0D0C94DA
:101C0000A10D11240C94E60D0E94C30D70F3959F55
:101C1000C1F3950F50E0551F629FF001729FBB27E3
:101C2000F00DB11D639FAA27F00DB11DAA1F649F7F
:101C30006627B00DA11D661F829F2227B00DA11D32
:101C4000621F739FB00DA11D621F839FA00D611DB8
:101C5000221F749F3327A00D611D231F849F600DD9
:101C6000211D822F762F6A2F11249F5750409AF002
:101C7000F1F088234AF0EE0FFF1FBB1F661F771F8E
:101C8000881F91505040A9F79E3F510580F00C9459
:101C90009B0D0C94E60D5F3FE4F3983ED4F38695DC
:101CA00077956795B795F795E7959F5FC1F7FE2BF9
:101CB000880F911D9695879597F908950E94770D45
:101CC000880B990B089597FB072E16F4009407D004
:101CD00077FD09D00E94990E07FC05D03EF490953F
:101CE00081959F4F0895709561957F4F0895A1E26A
:101CF0001A2EAA1BBB1BFD010DC0AA1FBB1FEE1F86
:101D0000FF1FA217B307E407F50720F0A21BB30BD0
:101D1000E40BF50B661F771F881F991F1A9469F74C
:101D200060957095809590959B01AC01BD01CF01A8
:101D30000895AA1BBB1B51E107C0AA1FBB1FA61712
:101D4000B70710F0A61BB70B881F991F5A95A9F764
:101D500080959095BC01CD010895EE0FFF1F059071
:101D6000F491E02D09940F931F93CF93DF9382306A
:101D7000910510F482E090E0E0911803F0911903CE
:101D800030E020E0B0E0A0E0309799F42115310573
:101D900009F44AC0281B390B24303105D8F58A8153
:101DA0009B816115710589F1FB0193838283FE019B
:101DB00011C0408151810281138148175907E0F019
:101DC0004817590799F4109761F012960C931297DF
:101DD00013961C933296CF01DF91CF911F910F91F3
:101DE00008950093180310931903F4CF21153105BA
:101DF00051F04217530738F0A901DB019A01BD01E8
:101E0000DF01F801C1CFEF01F9CF9093190380935F
:101E10001803CDCFFE01E20FF31F8193919322505F
:101E2000310939832883D7CF2091160330911703C6
:101E3000232B41F4209106013091070130931703C1
:101E400020931603209104013091050121153105DD
:101E500041F42DB73EB74091080150910901241B70
:101E6000350BE0911603F0911703E217F307A0F486
:101E70002E1B3F0B2817390778F0AC014E5F5F4FE0
:101E80002417350748F04E0F5F1F509317034093F8
:101E90001603819391939FCFF0E0E0E09CCFCF9326
:101EA000DF930097E9F0FC01329713821282A09130
:101EB0001803B0911903ED0130E020E01097A1F470
:101EC00020813181820F931F2091160330911703D7
:101ED0002817390709F061C0F0931703E093160340
:101EE000DF91CF910895EA01CE17DF07E8F54A8127
:101EF0005B819E0141155105B1F7E901FB83EA833E
:101F000049915991C40FD51FEC17FD0761F48081E9
:101F100091810296840F951FE901998388838281BC
:101F200093819B838A83F0E0E0E012968D919C91EF
:101F300013970097B9F52D913C911197CD01029619
:101F4000820F931F2091160330911703281739072A
:101F500039F6309751F51092190310921803B09387
:101F60001703A0931603BCCFD383C2834081518152
:101F7000840F951FC817D90761F44E5F5F4F8881A2
:101F80009981480F591F518340838A819B81938394
:101F900082832115310509F0B0CFF0931903E09346
:101FA00018039ECFFD01DC01C0CF13821282D7CF70
:101FB000DC0101C06D9341505040E0F70895F89462
:021FC000FFCF51
:101FC2001707D00700001A03800080402010080481
:101FD2000201000000007705D7040405C405350599
:101FE200130527050000000016071F086E616E002A
:101FF200696E66006F766600206B67000D0A00004E
:00000001FF
